{
  "_format": "hh-sol-artifact-1",
  "contractName": "ArtNFT",
  "sourceName": "contracts/ArtNFT.sol",
  "abi": [
    {
      "inputs": [],
      "stateMutability": "nonpayable",
      "type": "constructor"
    },
    {
      "inputs": [
        {
          "internalType": "address",
          "name": "sender",
          "type": "address"
        },
        {
          "internalType": "uint256",
          "name": "tokenId",
          "type": "uint256"
        },
        {
          "internalType": "address",
          "name": "owner",
          "type": "address"
        }
      ],
      "name": "ERC721IncorrectOwner",
      "type": "error"
    },
    {
      "inputs": [
        {
          "internalType": "address",
          "name": "operator",
          "type": "address"
        },
        {
          "internalType": "uint256",
          "name": "tokenId",
          "type": "uint256"
        }
      ],
      "name": "ERC721InsufficientApproval",
      "type": "error"
    },
    {
      "inputs": [
        {
          "internalType": "address",
          "name": "approver",
          "type": "address"
        }
      ],
      "name": "ERC721InvalidApprover",
      "type": "error"
    },
    {
      "inputs": [
        {
          "internalType": "address",
          "name": "operator",
          "type": "address"
        }
      ],
      "name": "ERC721InvalidOperator",
      "type": "error"
    },
    {
      "inputs": [
        {
          "internalType": "address",
          "name": "owner",
          "type": "address"
        }
      ],
      "name": "ERC721InvalidOwner",
      "type": "error"
    },
    {
      "inputs": [
        {
          "internalType": "address",
          "name": "receiver",
          "type": "address"
        }
      ],
      "name": "ERC721InvalidReceiver",
      "type": "error"
    },
    {
      "inputs": [
        {
          "internalType": "address",
          "name": "sender",
          "type": "address"
        }
      ],
      "name": "ERC721InvalidSender",
      "type": "error"
    },
    {
      "inputs": [
        {
          "internalType": "uint256",
          "name": "tokenId",
          "type": "uint256"
        }
      ],
      "name": "ERC721NonexistentToken",
      "type": "error"
    },
    {
      "inputs": [
        {
          "internalType": "address",
          "name": "owner",
          "type": "address"
        }
      ],
      "name": "OwnableInvalidOwner",
      "type": "error"
    },
    {
      "inputs": [
        {
          "internalType": "address",
          "name": "account",
          "type": "address"
        }
      ],
      "name": "OwnableUnauthorizedAccount",
      "type": "error"
    },
    {
      "anonymous": false,
      "inputs": [
        {
          "indexed": true,
          "internalType": "address",
          "name": "owner",
          "type": "address"
        },
        {
          "indexed": true,
          "internalType": "address",
          "name": "approved",
          "type": "address"
        },
        {
          "indexed": true,
          "internalType": "uint256",
          "name": "tokenId",
          "type": "uint256"
        }
      ],
      "name": "Approval",
      "type": "event"
    },
    {
      "anonymous": false,
      "inputs": [
        {
          "indexed": true,
          "internalType": "address",
          "name": "owner",
          "type": "address"
        },
        {
          "indexed": true,
          "internalType": "address",
          "name": "operator",
          "type": "address"
        },
        {
          "indexed": false,
          "internalType": "bool",
          "name": "approved",
          "type": "bool"
        }
      ],
      "name": "ApprovalForAll",
      "type": "event"
    },
    {
      "anonymous": false,
      "inputs": [
        {
          "indexed": true,
          "internalType": "address",
          "name": "creator",
          "type": "address"
        },
        {
          "indexed": false,
          "internalType": "uint256",
          "name": "tokenId",
          "type": "uint256"
        },
        {
          "indexed": false,
          "internalType": "string",
          "name": "tokenURI",
          "type": "string"
        }
      ],
      "name": "ArtMinted",
      "type": "event"
    },
    {
      "anonymous": false,
      "inputs": [
        {
          "indexed": true,
          "internalType": "address",
          "name": "buyer",
          "type": "address"
        },
        {
          "indexed": false,
          "internalType": "uint256",
          "name": "tokenId",
          "type": "uint256"
        },
        {
          "indexed": false,
          "internalType": "uint256",
          "name": "price",
          "type": "uint256"
        }
      ],
      "name": "ArtSold",
      "type": "event"
    },
    {
      "anonymous": false,
      "inputs": [
        {
          "indexed": false,
          "internalType": "uint256",
          "name": "_fromTokenId",
          "type": "uint256"
        },
        {
          "indexed": false,
          "internalType": "uint256",
          "name": "_toTokenId",
          "type": "uint256"
        }
      ],
      "name": "BatchMetadataUpdate",
      "type": "event"
    },
    {
      "anonymous": false,
      "inputs": [
        {
          "indexed": false,
          "internalType": "uint256",
          "name": "_tokenId",
          "type": "uint256"
        }
      ],
      "name": "MetadataUpdate",
      "type": "event"
    },
    {
      "anonymous": false,
      "inputs": [
        {
          "indexed": true,
          "internalType": "address",
          "name": "previousOwner",
          "type": "address"
        },
        {
          "indexed": true,
          "internalType": "address",
          "name": "newOwner",
          "type": "address"
        }
      ],
      "name": "OwnershipTransferred",
      "type": "event"
    },
    {
      "anonymous": false,
      "inputs": [
        {
          "indexed": true,
          "internalType": "address",
          "name": "from",
          "type": "address"
        },
        {
          "indexed": true,
          "internalType": "address",
          "name": "to",
          "type": "address"
        },
        {
          "indexed": true,
          "internalType": "uint256",
          "name": "tokenId",
          "type": "uint256"
        }
      ],
      "name": "Transfer",
      "type": "event"
    },
    {
      "inputs": [
        {
          "internalType": "address",
          "name": "to",
          "type": "address"
        },
        {
          "internalType": "uint256",
          "name": "tokenId",
          "type": "uint256"
        }
      ],
      "name": "approve",
      "outputs": [],
      "stateMutability": "nonpayable",
      "type": "function"
    },
    {
      "inputs": [
        {
          "internalType": "address",
          "name": "owner",
          "type": "address"
        }
      ],
      "name": "balanceOf",
      "outputs": [
        {
          "internalType": "uint256",
          "name": "",
          "type": "uint256"
        }
      ],
      "stateMutability": "view",
      "type": "function"
    },
    {
      "inputs": [
        {
          "internalType": "uint256",
          "name": "tokenId",
          "type": "uint256"
        }
      ],
      "name": "buy",
      "outputs": [],
      "stateMutability": "payable",
      "type": "function"
    },
    {
      "inputs": [
        {
          "internalType": "address",
          "name": "",
          "type": "address"
        }
      ],
      "name": "earnings",
      "outputs": [
        {
          "internalType": "uint256",
          "name": "",
          "type": "uint256"
        }
      ],
      "stateMutability": "view",
      "type": "function"
    },
    {
      "inputs": [
        {
          "internalType": "uint256",
          "name": "tokenId",
          "type": "uint256"
        }
      ],
      "name": "getApproved",
      "outputs": [
        {
          "internalType": "address",
          "name": "",
          "type": "address"
        }
      ],
      "stateMutability": "view",
      "type": "function"
    },
    {
      "inputs": [
        {
          "internalType": "address",
          "name": "owner",
          "type": "address"
        },
        {
          "internalType": "address",
          "name": "operator",
          "type": "address"
        }
      ],
      "name": "isApprovedForAll",
      "outputs": [
        {
          "internalType": "bool",
          "name": "",
          "type": "bool"
        }
      ],
      "stateMutability": "view",
      "type": "function"
    },
    {
      "inputs": [
        {
          "internalType": "uint256",
          "name": "tokenId",
          "type": "uint256"
        },
        {
          "internalType": "uint256",
          "name": "price",
          "type": "uint256"
        }
      ],
      "name": "listForSale",
      "outputs": [],
      "stateMutability": "nonpayable",
      "type": "function"
    },
    {
      "inputs": [
        {
          "internalType": "string",
          "name": "tokenUri",
          "type": "string"
        },
        {
          "internalType": "uint256",
          "name": "price",
          "type": "uint256"
        }
      ],
      "name": "mintAndListForSale",
      "outputs": [
        {
          "internalType": "uint256",
          "name": "",
          "type": "uint256"
        }
      ],
      "stateMutability": "nonpayable",
      "type": "function"
    },
    {
      "inputs": [],
      "name": "name",
      "outputs": [
        {
          "internalType": "string",
          "name": "",
          "type": "string"
        }
      ],
      "stateMutability": "view",
      "type": "function"
    },
    {
      "inputs": [],
      "name": "nextTokenId",
      "outputs": [
        {
          "internalType": "uint256",
          "name": "",
          "type": "uint256"
        }
      ],
      "stateMutability": "view",
      "type": "function"
    },
    {
      "inputs": [],
      "name": "owner",
      "outputs": [
        {
          "internalType": "address",
          "name": "",
          "type": "address"
        }
      ],
      "stateMutability": "view",
      "type": "function"
    },
    {
      "inputs": [
        {
          "internalType": "uint256",
          "name": "tokenId",
          "type": "uint256"
        }
      ],
      "name": "ownerOf",
      "outputs": [
        {
          "internalType": "address",
          "name": "",
          "type": "address"
        }
      ],
      "stateMutability": "view",
      "type": "function"
    },
    {
      "inputs": [
        {
          "internalType": "uint256",
          "name": "",
          "type": "uint256"
        }
      ],
      "name": "prices",
      "outputs": [
        {
          "internalType": "uint256",
          "name": "",
          "type": "uint256"
        }
      ],
      "stateMutability": "view",
      "type": "function"
    },
    {
      "inputs": [
        {
          "internalType": "uint256",
          "name": "",
          "type": "uint256"
        }
      ],
      "name": "purchased",
      "outputs": [
        {
          "internalType": "bool",
          "name": "",
          "type": "bool"
        }
      ],
      "stateMutability": "view",
      "type": "function"
    },
    {
      "inputs": [],
      "name": "renounceOwnership",
      "outputs": [],
      "stateMutability": "nonpayable",
      "type": "function"
    },
    {
      "inputs": [
        {
          "internalType": "address",
          "name": "from",
          "type": "address"
        },
        {
          "internalType": "address",
          "name": "to",
          "type": "address"
        },
        {
          "internalType": "uint256",
          "name": "tokenId",
          "type": "uint256"
        }
      ],
      "name": "safeTransferFrom",
      "outputs": [],
      "stateMutability": "nonpayable",
      "type": "function"
    },
    {
      "inputs": [
        {
          "internalType": "address",
          "name": "from",
          "type": "address"
        },
        {
          "internalType": "address",
          "name": "to",
          "type": "address"
        },
        {
          "internalType": "uint256",
          "name": "tokenId",
          "type": "uint256"
        },
        {
          "internalType": "bytes",
          "name": "data",
          "type": "bytes"
        }
      ],
      "name": "safeTransferFrom",
      "outputs": [],
      "stateMutability": "nonpayable",
      "type": "function"
    },
    {
      "inputs": [
        {
          "internalType": "address",
          "name": "operator",
          "type": "address"
        },
        {
          "internalType": "bool",
          "name": "approved",
          "type": "bool"
        }
      ],
      "name": "setApprovalForAll",
      "outputs": [],
      "stateMutability": "nonpayable",
      "type": "function"
    },
    {
      "inputs": [
        {
          "internalType": "bytes4",
          "name": "interfaceId",
          "type": "bytes4"
        }
      ],
      "name": "supportsInterface",
      "outputs": [
        {
          "internalType": "bool",
          "name": "",
          "type": "bool"
        }
      ],
      "stateMutability": "view",
      "type": "function"
    },
    {
      "inputs": [],
      "name": "symbol",
      "outputs": [
        {
          "internalType": "string",
          "name": "",
          "type": "string"
        }
      ],
      "stateMutability": "view",
      "type": "function"
    },
    {
      "inputs": [
        {
          "internalType": "uint256",
          "name": "tokenId",
          "type": "uint256"
        }
      ],
      "name": "tokenURI",
      "outputs": [
        {
          "internalType": "string",
          "name": "",
          "type": "string"
        }
      ],
      "stateMutability": "view",
      "type": "function"
    },
    {
      "inputs": [],
      "name": "totalSupply",
      "outputs": [
        {
          "internalType": "uint256",
          "name": "",
          "type": "uint256"
        }
      ],
      "stateMutability": "view",
      "type": "function"
    },
    {
      "inputs": [
        {
          "internalType": "address",
          "name": "from",
          "type": "address"
        },
        {
          "internalType": "address",
          "name": "to",
          "type": "address"
        },
        {
          "internalType": "uint256",
          "name": "tokenId",
          "type": "uint256"
        }
      ],
      "name": "transferFrom",
      "outputs": [],
      "stateMutability": "nonpayable",
      "type": "function"
    },
    {
      "inputs": [
        {
          "internalType": "address",
          "name": "newOwner",
          "type": "address"
        }
      ],
      "name": "transferOwnership",
      "outputs": [],
      "stateMutability": "nonpayable",
      "type": "function"
    },
    {
      "inputs": [],
      "name": "withdraw",
      "outputs": [],
      "stateMutability": "nonpayable",
      "type": "function"
    }
  ],
  "bytecode": "0x608060405234801561001057600080fd5b50336040518060400160405280600681526020017f4172744e465400000000000000000000000000000000000000000000000000008152506040518060400160405280600381526020017f4152540000000000000000000000000000000000000000000000000000000000815250816000908161008d919061043d565b50806001908161009d919061043d565b505050600073ffffffffffffffffffffffffffffffffffffffff168173ffffffffffffffffffffffffffffffffffffffff16036101125760006040517f1e4fbdf70000000000000000000000000000000000000000000000000000000081526004016101099190610550565b60405180910390fd5b6101218161012760201b60201c565b5061056b565b6000600760009054906101000a900473ffffffffffffffffffffffffffffffffffffffff16905081600760006101000a81548173ffffffffffffffffffffffffffffffffffffffff021916908373ffffffffffffffffffffffffffffffffffffffff1602179055508173ffffffffffffffffffffffffffffffffffffffff168173ffffffffffffffffffffffffffffffffffffffff167f8be0079c531659141344cd1fd0a4f28419497f9722a3daafe3b4186f6b6457e060405160405180910390a35050565b600081519050919050565b7f4e487b7100000000000000000000000000000000000000000000000000000000600052604160045260246000fd5b7f4e487b7100000000000000000000000000000000000000000000000000000000600052602260045260246000fd5b6000600282049050600182168061026e57607f821691505b60208210810361028157610280610227565b5b50919050565b60008190508160005260206000209050919050565b60006020601f8301049050919050565b600082821b905092915050565b6000600883026102e97fffffffffffffffffffffffffffffffffffffffffffffffffffffffffffffffff826102ac565b6102f386836102ac565b95508019841693508086168417925050509392505050565b6000819050919050565b6000819050919050565b600061033a6103356103308461030b565b610315565b61030b565b9050919050565b6000819050919050565b6103548361031f565b61036861036082610341565b8484546102b9565b825550505050565b600090565b61037d610370565b61038881848461034b565b505050565b5b818110156103ac576103a1600082610375565b60018101905061038e565b5050565b601f8211156103f1576103c281610287565b6103cb8461029c565b810160208510156103da578190505b6103ee6103e68561029c565b83018261038d565b50505b505050565b600082821c905092915050565b6000610414600019846008026103f6565b1980831691505092915050565b600061042d8383610403565b9150826002028217905092915050565b610446826101ed565b67ffffffffffffffff81111561045f5761045e6101f8565b5b6104698254610256565b6104748282856103b0565b600060209050601f8311600181146104a75760008415610495578287015190505b61049f8582610421565b865550610507565b601f1984166104b586610287565b60005b828110156104dd578489015182556001820191506020850194506020810190506104b8565b868310156104fa57848901516104f6601f891682610403565b8355505b6001600288020188555050505b505050505050565b600073ffffffffffffffffffffffffffffffffffffffff82169050919050565b600061053a8261050f565b9050919050565b61054a8161052f565b82525050565b60006020820190506105656000830184610541565b92915050565b6130d98061057a6000396000f3fe6080604052600436106101665760003560e01c8063715018a6116100d1578063bc31c1c11161008a578063d9ae93d211610064578063d9ae93d214610541578063e80d7fec1461057e578063e985e9c5146105a7578063f2fde38b146105e457610166565b8063bc31c1c1146104ab578063c87b56dd146104e8578063d96a094a1461052557610166565b8063715018a6146103c157806375794a3c146103d85780638da5cb5b1461040357806395d89b411461042e578063a22cb46514610459578063b88d4fde1461048257610166565b80633ccfd60b116101235780633ccfd60b1461028d57806342842e0e146102a457806348c1f5d7146102cd578063543fd3131461030a5780636352211e1461034757806370a082311461038457610166565b806301ffc9a71461016b57806306fdde03146101a8578063081812fc146101d3578063095ea7b31461021057806318160ddd1461023957806323b872dd14610264575b600080fd5b34801561017757600080fd5b50610192600480360381019061018d91906122b4565b61060d565b60405161019f91906122fc565b60405180910390f35b3480156101b457600080fd5b506101bd61066e565b6040516101ca91906123a7565b60405180910390f35b3480156101df57600080fd5b506101fa60048036038101906101f591906123ff565b610700565b604051610207919061246d565b60405180910390f35b34801561021c57600080fd5b50610237600480360381019061023291906124b4565b61071c565b005b34801561024557600080fd5b5061024e610732565b60405161025b9190612503565b60405180910390f35b34801561027057600080fd5b5061028b6004803603810190610286919061251e565b61073c565b005b34801561029957600080fd5b506102a261083e565b005b3480156102b057600080fd5b506102cb60048036038101906102c6919061251e565b610954565b005b3480156102d957600080fd5b506102f460048036038101906102ef91906126a6565b610974565b6040516103019190612503565b60405180910390f35b34801561031657600080fd5b50610331600480360381019061032c9190612702565b610a1a565b60405161033e9190612503565b60405180910390f35b34801561035357600080fd5b5061036e600480360381019061036991906123ff565b610a32565b60405161037b919061246d565b60405180910390f35b34801561039057600080fd5b506103ab60048036038101906103a69190612702565b610a44565b6040516103b89190612503565b60405180910390f35b3480156103cd57600080fd5b506103d6610afe565b005b3480156103e457600080fd5b506103ed610b12565b6040516103fa9190612503565b60405180910390f35b34801561040f57600080fd5b50610418610b18565b604051610425919061246d565b60405180910390f35b34801561043a57600080fd5b50610443610b42565b60405161045091906123a7565b60405180910390f35b34801561046557600080fd5b50610480600480360381019061047b919061275b565b610bd4565b005b34801561048e57600080fd5b506104a960048036038101906104a4919061283c565b610bea565b005b3480156104b757600080fd5b506104d260048036038101906104cd91906123ff565b610c0f565b6040516104df9190612503565b60405180910390f35b3480156104f457600080fd5b5061050f600480360381019061050a91906123ff565b610c27565b60405161051c91906123a7565b60405180910390f35b61053f600480360381019061053a91906123ff565b610d3a565b005b34801561054d57600080fd5b50610568600480360381019061056391906123ff565b610ee0565b60405161057591906122fc565b60405180910390f35b34801561058a57600080fd5b506105a560048036038101906105a091906128bf565b610f00565b005b3480156105b357600080fd5b506105ce60048036038101906105c991906128ff565b610f92565b6040516105db91906122fc565b60405180910390f35b3480156105f057600080fd5b5061060b60048036038101906106069190612702565b611026565b005b6000634906490660e01b7bffffffffffffffffffffffffffffffffffffffffffffffffffffffff1916827bffffffffffffffffffffffffffffffffffffffffffffffffffffffff191614806106675750610666826110ac565b5b9050919050565b60606000805461067d9061296e565b80601f01602080910402602001604051908101604052809291908181526020018280546106a99061296e565b80156106f65780601f106106cb576101008083540402835291602001916106f6565b820191906000526020600020905b8154815290600101906020018083116106d957829003601f168201915b5050505050905090565b600061070b8261118e565b5061071582611216565b9050919050565b61072e8282610729611253565b61125b565b5050565b6000600854905090565b600073ffffffffffffffffffffffffffffffffffffffff168273ffffffffffffffffffffffffffffffffffffffff16036107ae5760006040517f64a0ae920000000000000000000000000000000000000000000000000000000081526004016107a5919061246d565b60405180910390fd5b60006107c283836107bd611253565b61126d565b90508373ffffffffffffffffffffffffffffffffffffffff168173ffffffffffffffffffffffffffffffffffffffff1614610838578382826040517f64283d7b00000000000000000000000000000000000000000000000000000000815260040161082f9392919061299f565b60405180910390fd5b50505050565b6000600a60003373ffffffffffffffffffffffffffffffffffffffff1673ffffffffffffffffffffffffffffffffffffffff168152602001908152602001600020549050600081116108c5576040517f08c379a00000000000000000000000000000000000000000000000000000000081526004016108bc90612a22565b60405180910390fd5b6000600a60003373ffffffffffffffffffffffffffffffffffffffff1673ffffffffffffffffffffffffffffffffffffffff168152602001908152602001600020819055503373ffffffffffffffffffffffffffffffffffffffff166108fc829081150290604051600060405180830381858888f19350505050158015610950573d6000803e3d6000fd5b5050565b61096f83838360405180602001604052806000815250610bea565b505050565b60008060085490506109863382611487565b6109908185611580565b600860008154809291906109a390612a71565b91905055508260096000838152602001908152602001600020819055503373ffffffffffffffffffffffffffffffffffffffff167f6cf04a958c3bec9476b50e9d8fdbb993c6fe8fe2a292163cc8465302e7d10bfd8286604051610a08929190612ab9565b60405180910390a28091505092915050565b600a6020528060005260406000206000915090505481565b6000610a3d8261118e565b9050919050565b60008073ffffffffffffffffffffffffffffffffffffffff168273ffffffffffffffffffffffffffffffffffffffff1603610ab75760006040517f89c62b64000000000000000000000000000000000000000000000000000000008152600401610aae919061246d565b60405180910390fd5b600360008373ffffffffffffffffffffffffffffffffffffffff1673ffffffffffffffffffffffffffffffffffffffff168152602001908152602001600020549050919050565b610b066115dc565b610b106000611663565b565b60085481565b6000600760009054906101000a900473ffffffffffffffffffffffffffffffffffffffff16905090565b606060018054610b519061296e565b80601f0160208091040260200160405190810160405280929190818152602001828054610b7d9061296e565b8015610bca5780601f10610b9f57610100808354040283529160200191610bca565b820191906000526020600020905b815481529060010190602001808311610bad57829003601f168201915b5050505050905090565b610be6610bdf611253565b8383611729565b5050565b610bf584848461073c565b610c09610c00611253565b85858585611898565b50505050565b60096020528060005260406000206000915090505481565b6060610c328261118e565b506000600660008481526020019081526020016000208054610c539061296e565b80601f0160208091040260200160405190810160405280929190818152602001828054610c7f9061296e565b8015610ccc5780601f10610ca157610100808354040283529160200191610ccc565b820191906000526020600020905b815481529060010190602001808311610caf57829003601f168201915b505050505090506000610cdd611a49565b90506000815103610cf2578192505050610d35565b600082511115610d27578082604051602001610d0f929190612b25565b60405160208183030381529060405292505050610d35565b610d3084611a60565b925050505b919050565b6000600960008381526020019081526020016000205490506000610d5d83610a32565b905060008211610da2576040517f08c379a0000000000000000000000000000000000000000000000000000000008152600401610d9990612b95565b60405180910390fd5b81341015610de5576040517f08c379a0000000000000000000000000000000000000000000000000000000008152600401610ddc90612c01565b60405180910390fd5b610df0813385611ac9565b600060096000858152602001908152602001600020819055506001600b600085815260200190815260200160002060006101000a81548160ff02191690831515021790555034600a60008373ffffffffffffffffffffffffffffffffffffffff1673ffffffffffffffffffffffffffffffffffffffff1681526020019081526020016000206000828254610e849190612c21565b925050819055503373ffffffffffffffffffffffffffffffffffffffff167f57af7e20c015bfaf4f55d77348526456e6433d3c9801597582de949d0b3519e98484604051610ed3929190612c55565b60405180910390a2505050565b600b6020528060005260406000206000915054906101000a900460ff1681565b3373ffffffffffffffffffffffffffffffffffffffff16610f2083610a32565b73ffffffffffffffffffffffffffffffffffffffff1614610f76576040517f08c379a0000000000000000000000000000000000000000000000000000000008152600401610f6d90612cca565b60405180910390fd5b8060096000848152602001908152602001600020819055505050565b6000600560008473ffffffffffffffffffffffffffffffffffffffff1673ffffffffffffffffffffffffffffffffffffffff16815260200190815260200160002060008373ffffffffffffffffffffffffffffffffffffffff1673ffffffffffffffffffffffffffffffffffffffff16815260200190815260200160002060009054906101000a900460ff16905092915050565b61102e6115dc565b600073ffffffffffffffffffffffffffffffffffffffff168173ffffffffffffffffffffffffffffffffffffffff16036110a05760006040517f1e4fbdf7000000000000000000000000000000000000000000000000000000008152600401611097919061246d565b60405180910390fd5b6110a981611663565b50565b60007f80ac58cd000000000000000000000000000000000000000000000000000000007bffffffffffffffffffffffffffffffffffffffffffffffffffffffff1916827bffffffffffffffffffffffffffffffffffffffffffffffffffffffff1916148061117757507f5b5e139f000000000000000000000000000000000000000000000000000000007bffffffffffffffffffffffffffffffffffffffffffffffffffffffff1916827bffffffffffffffffffffffffffffffffffffffffffffffffffffffff1916145b80611187575061118682611c36565b5b9050919050565b60008061119a83611ca0565b9050600073ffffffffffffffffffffffffffffffffffffffff168173ffffffffffffffffffffffffffffffffffffffff160361120d57826040517f7e2732890000000000000000000000000000000000000000000000000000000081526004016112049190612503565b60405180910390fd5b80915050919050565b60006004600083815260200190815260200160002060009054906101000a900473ffffffffffffffffffffffffffffffffffffffff169050919050565b600033905090565b6112688383836001611cdd565b505050565b60008061127984611ca0565b9050600073ffffffffffffffffffffffffffffffffffffffff168373ffffffffffffffffffffffffffffffffffffffff16146112bb576112ba818486611ea2565b5b600073ffffffffffffffffffffffffffffffffffffffff168173ffffffffffffffffffffffffffffffffffffffff161461134c576112fd600085600080611cdd565b6001600360008373ffffffffffffffffffffffffffffffffffffffff1673ffffffffffffffffffffffffffffffffffffffff168152602001908152602001600020600082825403925050819055505b600073ffffffffffffffffffffffffffffffffffffffff168573ffffffffffffffffffffffffffffffffffffffff16146113cf576001600360008773ffffffffffffffffffffffffffffffffffffffff1673ffffffffffffffffffffffffffffffffffffffff168152602001908152602001600020600082825401925050819055505b846002600086815260200190815260200160002060006101000a81548173ffffffffffffffffffffffffffffffffffffffff021916908373ffffffffffffffffffffffffffffffffffffffff160217905550838573ffffffffffffffffffffffffffffffffffffffff168273ffffffffffffffffffffffffffffffffffffffff167fddf252ad1be2c89b69c2b068fc378daa952ba7f163c4a11628f55a4df523b3ef60405160405180910390a4809150509392505050565b600073ffffffffffffffffffffffffffffffffffffffff168273ffffffffffffffffffffffffffffffffffffffff16036114f95760006040517f64a0ae920000000000000000000000000000000000000000000000000000000081526004016114f0919061246d565b60405180910390fd5b60006115078383600061126d565b9050600073ffffffffffffffffffffffffffffffffffffffff168173ffffffffffffffffffffffffffffffffffffffff161461157b5760006040517f73c6ac6e000000000000000000000000000000000000000000000000000000008152600401611572919061246d565b60405180910390fd5b505050565b806006600084815260200190815260200160002090816115a09190612e96565b507ff8e1a15aba9398e019f0b49df1a4fde98ee17ae345cb5f6b5e2c27f5033e8ce7826040516115d09190612503565b60405180910390a15050565b6115e4611253565b73ffffffffffffffffffffffffffffffffffffffff16611602610b18565b73ffffffffffffffffffffffffffffffffffffffff161461166157611625611253565b6040517f118cdaa7000000000000000000000000000000000000000000000000000000008152600401611658919061246d565b60405180910390fd5b565b6000600760009054906101000a900473ffffffffffffffffffffffffffffffffffffffff16905081600760006101000a81548173ffffffffffffffffffffffffffffffffffffffff021916908373ffffffffffffffffffffffffffffffffffffffff1602179055508173ffffffffffffffffffffffffffffffffffffffff168173ffffffffffffffffffffffffffffffffffffffff167f8be0079c531659141344cd1fd0a4f28419497f9722a3daafe3b4186f6b6457e060405160405180910390a35050565b600073ffffffffffffffffffffffffffffffffffffffff168273ffffffffffffffffffffffffffffffffffffffff160361179a57816040517f5b08ba18000000000000000000000000000000000000000000000000000000008152600401611791919061246d565b60405180910390fd5b80600560008573ffffffffffffffffffffffffffffffffffffffff1673ffffffffffffffffffffffffffffffffffffffff16815260200190815260200160002060008473ffffffffffffffffffffffffffffffffffffffff1673ffffffffffffffffffffffffffffffffffffffff16815260200190815260200160002060006101000a81548160ff0219169083151502179055508173ffffffffffffffffffffffffffffffffffffffff168373ffffffffffffffffffffffffffffffffffffffff167f17307eab39ab6107e8899845ad3d59bd9653f200f220920489ca2b5937696c318360405161188b91906122fc565b60405180910390a3505050565b60008373ffffffffffffffffffffffffffffffffffffffff163b1115611a42578273ffffffffffffffffffffffffffffffffffffffff1663150b7a02868685856040518563ffffffff1660e01b81526004016118f79493929190612fbd565b6020604051808303816000875af192505050801561193357506040513d601f19601f82011682018060405250810190611930919061301e565b60015b6119b7573d8060008114611963576040519150601f19603f3d011682016040523d82523d6000602084013e611968565b606091505b5060008151036119af57836040517f64a0ae920000000000000000000000000000000000000000000000000000000081526004016119a6919061246d565b60405180910390fd5b805181602001fd5b63150b7a0260e01b7bffffffffffffffffffffffffffffffffffffffffffffffffffffffff1916817bffffffffffffffffffffffffffffffffffffffffffffffffffffffff191614611a4057836040517f64a0ae92000000000000000000000000000000000000000000000000000000008152600401611a37919061246d565b60405180910390fd5b505b5050505050565b606060405180602001604052806000815250905090565b6060611a6b8261118e565b506000611a76611a49565b90506000815111611a965760405180602001604052806000815250611ac1565b80611aa084611f66565b604051602001611ab1929190612b25565b6040516020818303038152906040525b915050919050565b600073ffffffffffffffffffffffffffffffffffffffff168273ffffffffffffffffffffffffffffffffffffffff1603611b3b5760006040517f64a0ae92000000000000000000000000000000000000000000000000000000008152600401611b32919061246d565b60405180910390fd5b6000611b498383600061126d565b9050600073ffffffffffffffffffffffffffffffffffffffff168173ffffffffffffffffffffffffffffffffffffffff1603611bbc57816040517f7e273289000000000000000000000000000000000000000000000000000000008152600401611bb39190612503565b60405180910390fd5b8373ffffffffffffffffffffffffffffffffffffffff168173ffffffffffffffffffffffffffffffffffffffff1614611c30578382826040517f64283d7b000000000000000000000000000000000000000000000000000000008152600401611c279392919061299f565b60405180910390fd5b50505050565b60007f01ffc9a7000000000000000000000000000000000000000000000000000000007bffffffffffffffffffffffffffffffffffffffffffffffffffffffff1916827bffffffffffffffffffffffffffffffffffffffffffffffffffffffff1916149050919050565b60006002600083815260200190815260200160002060009054906101000a900473ffffffffffffffffffffffffffffffffffffffff169050919050565b8080611d165750600073ffffffffffffffffffffffffffffffffffffffff168273ffffffffffffffffffffffffffffffffffffffff1614155b15611e4a576000611d268461118e565b9050600073ffffffffffffffffffffffffffffffffffffffff168373ffffffffffffffffffffffffffffffffffffffff1614158015611d9157508273ffffffffffffffffffffffffffffffffffffffff168173ffffffffffffffffffffffffffffffffffffffff1614155b8015611da45750611da28184610f92565b155b15611de657826040517fa9fbf51f000000000000000000000000000000000000000000000000000000008152600401611ddd919061246d565b60405180910390fd5b8115611e4857838573ffffffffffffffffffffffffffffffffffffffff168273ffffffffffffffffffffffffffffffffffffffff167f8c5be1e5ebec7d5bd14f71427d1e84f3dd0314c0f7b2291e5b200ac8c7c3b92560405160405180910390a45b505b836004600085815260200190815260200160002060006101000a81548173ffffffffffffffffffffffffffffffffffffffff021916908373ffffffffffffffffffffffffffffffffffffffff16021790555050505050565b611ead838383612034565b611f6157600073ffffffffffffffffffffffffffffffffffffffff168373ffffffffffffffffffffffffffffffffffffffff1603611f2257806040517f7e273289000000000000000000000000000000000000000000000000000000008152600401611f199190612503565b60405180910390fd5b81816040517f177e802f000000000000000000000000000000000000000000000000000000008152600401611f5892919061304b565b60405180910390fd5b505050565b606060006001611f75846120f5565b01905060008167ffffffffffffffff811115611f9457611f9361257b565b5b6040519080825280601f01601f191660200182016040528015611fc65781602001600182028036833780820191505090505b509050600082602001820190505b600115612029578080600190039150507f3031323334353637383961626364656600000000000000000000000000000000600a86061a8153600a858161201d5761201c613074565b5b04945060008503611fd4575b819350505050919050565b60008073ffffffffffffffffffffffffffffffffffffffff168373ffffffffffffffffffffffffffffffffffffffff16141580156120ec57508273ffffffffffffffffffffffffffffffffffffffff168473ffffffffffffffffffffffffffffffffffffffff1614806120ad57506120ac8484610f92565b5b806120eb57508273ffffffffffffffffffffffffffffffffffffffff166120d383611216565b73ffffffffffffffffffffffffffffffffffffffff16145b5b90509392505050565b600080600090507a184f03e93ff9f4daa797ed6e38ed64bf6a1f0100000000000000008310612153577a184f03e93ff9f4daa797ed6e38ed64bf6a1f010000000000000000838161214957612148613074565b5b0492506040810190505b6d04ee2d6d415b85acef81000000008310612190576d04ee2d6d415b85acef8100000000838161218657612185613074565b5b0492506020810190505b662386f26fc1000083106121bf57662386f26fc1000083816121b5576121b4613074565b5b0492506010810190505b6305f5e10083106121e8576305f5e10083816121de576121dd613074565b5b0492506008810190505b612710831061220d57612710838161220357612202613074565b5b0492506004810190505b60648310612230576064838161222657612225613074565b5b0492506002810190505b600a831061223f576001810190505b80915050919050565b6000604051905090565b600080fd5b600080fd5b60007fffffffff0000000000000000000000000000000000000000000000000000000082169050919050565b6122918161225c565b811461229c57600080fd5b50565b6000813590506122ae81612288565b92915050565b6000602082840312156122ca576122c9612252565b5b60006122d88482850161229f565b91505092915050565b60008115159050919050565b6122f6816122e1565b82525050565b600060208201905061231160008301846122ed565b92915050565b600081519050919050565b600082825260208201905092915050565b60005b83811015612351578082015181840152602081019050612336565b60008484015250505050565b6000601f19601f8301169050919050565b600061237982612317565b6123838185612322565b9350612393818560208601612333565b61239c8161235d565b840191505092915050565b600060208201905081810360008301526123c1818461236e565b905092915050565b6000819050919050565b6123dc816123c9565b81146123e757600080fd5b50565b6000813590506123f9816123d3565b92915050565b60006020828403121561241557612414612252565b5b6000612423848285016123ea565b91505092915050565b600073ffffffffffffffffffffffffffffffffffffffff82169050919050565b60006124578261242c565b9050919050565b6124678161244c565b82525050565b6000602082019050612482600083018461245e565b92915050565b6124918161244c565b811461249c57600080fd5b50565b6000813590506124ae81612488565b92915050565b600080604083850312156124cb576124ca612252565b5b60006124d98582860161249f565b92505060206124ea858286016123ea565b9150509250929050565b6124fd816123c9565b82525050565b600060208201905061251860008301846124f4565b92915050565b60008060006060848603121561253757612536612252565b5b60006125458682870161249f565b93505060206125568682870161249f565b9250506040612567868287016123ea565b9150509250925092565b600080fd5b600080fd5b7f4e487b7100000000000000000000000000000000000000000000000000000000600052604160045260246000fd5b6125b38261235d565b810181811067ffffffffffffffff821117156125d2576125d161257b565b5b80604052505050565b60006125e5612248565b90506125f182826125aa565b919050565b600067ffffffffffffffff8211156126115761261061257b565b5b61261a8261235d565b9050602081019050919050565b82818337600083830152505050565b6000612649612644846125f6565b6125db565b90508281526020810184848401111561266557612664612576565b5b612670848285612627565b509392505050565b600082601f83011261268d5761268c612571565b5b813561269d848260208601612636565b91505092915050565b600080604083850312156126bd576126bc612252565b5b600083013567ffffffffffffffff8111156126db576126da612257565b5b6126e785828601612678565b92505060206126f8858286016123ea565b9150509250929050565b60006020828403121561271857612717612252565b5b60006127268482850161249f565b91505092915050565b612738816122e1565b811461274357600080fd5b50565b6000813590506127558161272f565b92915050565b6000806040838503121561277257612771612252565b5b60006127808582860161249f565b925050602061279185828601612746565b9150509250929050565b600067ffffffffffffffff8211156127b6576127b561257b565b5b6127bf8261235d565b9050602081019050919050565b60006127df6127da8461279b565b6125db565b9050828152602081018484840111156127fb576127fa612576565b5b612806848285612627565b509392505050565b600082601f83011261282357612822612571565b5b81356128338482602086016127cc565b91505092915050565b6000806000806080858703121561285657612855612252565b5b60006128648782880161249f565b94505060206128758782880161249f565b9350506040612886878288016123ea565b925050606085013567ffffffffffffffff8111156128a7576128a6612257565b5b6128b38782880161280e565b91505092959194509250565b600080604083850312156128d6576128d5612252565b5b60006128e4858286016123ea565b92505060206128f5858286016123ea565b9150509250929050565b6000806040838503121561291657612915612252565b5b60006129248582860161249f565b92505060206129358582860161249f565b9150509250929050565b7f4e487b7100000000000000000000000000000000000000000000000000000000600052602260045260246000fd5b6000600282049050600182168061298657607f821691505b6020821081036129995761299861293f565b5b50919050565b60006060820190506129b4600083018661245e565b6129c160208301856124f4565b6129ce604083018461245e565b949350505050565b7f4e6f206561726e696e6773000000000000000000000000000000000000000000600082015250565b6000612a0c600b83612322565b9150612a17826129d6565b602082019050919050565b60006020820190508181036000830152612a3b816129ff565b9050919050565b7f4e487b7100000000000000000000000000000000000000000000000000000000600052601160045260246000fd5b6000612a7c826123c9565b91507fffffffffffffffffffffffffffffffffffffffffffffffffffffffffffffffff8203612aae57612aad612a42565b5b600182019050919050565b6000604082019050612ace60008301856124f4565b8181036020830152612ae0818461236e565b90509392505050565b600081905092915050565b6000612aff82612317565b612b098185612ae9565b9350612b19818560208601612333565b80840191505092915050565b6000612b318285612af4565b9150612b3d8284612af4565b91508190509392505050565b7f4e6f7420666f722073616c650000000000000000000000000000000000000000600082015250565b6000612b7f600c83612322565b9150612b8a82612b49565b602082019050919050565b60006020820190508181036000830152612bae81612b72565b9050919050565b7f496e73756666696369656e742045544800000000000000000000000000000000600082015250565b6000612beb601083612322565b9150612bf682612bb5565b602082019050919050565b60006020820190508181036000830152612c1a81612bde565b9050919050565b6000612c2c826123c9565b9150612c37836123c9565b9250828201905080821115612c4f57612c4e612a42565b5b92915050565b6000604082019050612c6a60008301856124f4565b612c7760208301846124f4565b9392505050565b7f4e6f7420796f757220746f6b656e000000000000000000000000000000000000600082015250565b6000612cb4600e83612322565b9150612cbf82612c7e565b602082019050919050565b60006020820190508181036000830152612ce381612ca7565b9050919050565b60008190508160005260206000209050919050565b60006020601f8301049050919050565b600082821b905092915050565b600060088302612d4c7fffffffffffffffffffffffffffffffffffffffffffffffffffffffffffffffff82612d0f565b612d568683612d0f565b95508019841693508086168417925050509392505050565b6000819050919050565b6000612d93612d8e612d89846123c9565b612d6e565b6123c9565b9050919050565b6000819050919050565b612dad83612d78565b612dc1612db982612d9a565b848454612d1c565b825550505050565b600090565b612dd6612dc9565b612de1818484612da4565b505050565b5b81811015612e0557612dfa600082612dce565b600181019050612de7565b5050565b601f821115612e4a57612e1b81612cea565b612e2484612cff565b81016020851015612e33578190505b612e47612e3f85612cff565b830182612de6565b50505b505050565b600082821c905092915050565b6000612e6d60001984600802612e4f565b1980831691505092915050565b6000612e868383612e5c565b9150826002028217905092915050565b612e9f82612317565b67ffffffffffffffff811115612eb857612eb761257b565b5b612ec2825461296e565b612ecd828285612e09565b600060209050601f831160018114612f005760008415612eee578287015190505b612ef88582612e7a565b865550612f60565b601f198416612f0e86612cea565b60005b82811015612f3657848901518255600182019150602085019450602081019050612f11565b86831015612f535784890151612f4f601f891682612e5c565b8355505b6001600288020188555050505b505050505050565b600081519050919050565b600082825260208201905092915050565b6000612f8f82612f68565b612f998185612f73565b9350612fa9818560208601612333565b612fb28161235d565b840191505092915050565b6000608082019050612fd2600083018761245e565b612fdf602083018661245e565b612fec60408301856124f4565b8181036060830152612ffe8184612f84565b905095945050505050565b60008151905061301881612288565b92915050565b60006020828403121561303457613033612252565b5b600061304284828501613009565b91505092915050565b6000604082019050613060600083018561245e565b61306d60208301846124f4565b9392505050565b7f4e487b7100000000000000000000000000000000000000000000000000000000600052601260045260246000fdfea2646970667358221220074bd36198df261c86e2498d5aca11e8c9dc9770c990f99b96e0d21d604d38de64736f6c634300081c0033",
  "linkReferences": {},
  "deployedLinkReferences": {}
}