{
  "_format": "hh-sol-artifact-1",
  "contractName": "ArtNFT",
  "sourceName": "contracts/ArtNFT.sol",
  "abi": [
    {
      "inputs": [
        {
          "internalType": "string",
          "name": "uri",
          "type": "string"
        }
      ],
      "name": "mint",
      "outputs": [
        {
          "internalType": "uint256",
          "name": "",
          "type": "uint256"
        }
      ],
      "stateMutability": "nonpayable",
      "type": "function"
    },
    {
      "inputs": [],
      "stateMutability": "nonpayable",
      "type": "constructor"
    },
    {
      "inputs": [
        {
          "internalType": "address",
          "name": "sender",
          "type": "address"
        },
        {
          "internalType": "uint256",
          "name": "tokenId",
          "type": "uint256"
        },
        {
          "internalType": "address",
          "name": "owner",
          "type": "address"
        }
      ],
      "name": "ERC721IncorrectOwner",
      "type": "error"
    },
    {
      "inputs": [
        {
          "internalType": "address",
          "name": "operator",
          "type": "address"
        },
        {
          "internalType": "uint256",
          "name": "tokenId",
          "type": "uint256"
        }
      ],
      "name": "ERC721InsufficientApproval",
      "type": "error"
    },
    {
      "inputs": [
        {
          "internalType": "address",
          "name": "approver",
          "type": "address"
        }
      ],
      "name": "ERC721InvalidApprover",
      "type": "error"
    },
    {
      "inputs": [
        {
          "internalType": "address",
          "name": "operator",
          "type": "address"
        }
      ],
      "name": "ERC721InvalidOperator",
      "type": "error"
    },
    {
      "inputs": [
        {
          "internalType": "address",
          "name": "owner",
          "type": "address"
        }
      ],
      "name": "ERC721InvalidOwner",
      "type": "error"
    },
    {
      "inputs": [
        {
          "internalType": "address",
          "name": "receiver",
          "type": "address"
        }
      ],
      "name": "ERC721InvalidReceiver",
      "type": "error"
    },
    {
      "inputs": [
        {
          "internalType": "address",
          "name": "sender",
          "type": "address"
        }
      ],
      "name": "ERC721InvalidSender",
      "type": "error"
    },
    {
      "inputs": [
        {
          "internalType": "uint256",
          "name": "tokenId",
          "type": "uint256"
        }
      ],
      "name": "ERC721NonexistentToken",
      "type": "error"
    },
    {
      "inputs": [
        {
          "internalType": "address",
          "name": "owner",
          "type": "address"
        }
      ],
      "name": "OwnableInvalidOwner",
      "type": "error"
    },
    {
      "inputs": [
        {
          "internalType": "address",
          "name": "account",
          "type": "address"
        }
      ],
      "name": "OwnableUnauthorizedAccount",
      "type": "error"
    },
    {
      "anonymous": false,
      "inputs": [
        {
          "indexed": true,
          "internalType": "address",
          "name": "owner",
          "type": "address"
        },
        {
          "indexed": true,
          "internalType": "address",
          "name": "approved",
          "type": "address"
        },
        {
          "indexed": true,
          "internalType": "uint256",
          "name": "tokenId",
          "type": "uint256"
        }
      ],
      "name": "Approval",
      "type": "event"
    },
    {
      "anonymous": false,
      "inputs": [
        {
          "indexed": true,
          "internalType": "address",
          "name": "owner",
          "type": "address"
        },
        {
          "indexed": true,
          "internalType": "address",
          "name": "operator",
          "type": "address"
        },
        {
          "indexed": false,
          "internalType": "bool",
          "name": "approved",
          "type": "bool"
        }
      ],
      "name": "ApprovalForAll",
      "type": "event"
    },
    {
      "anonymous": false,
      "inputs": [
        {
          "indexed": true,
          "internalType": "address",
          "name": "creator",
          "type": "address"
        },
        {
          "indexed": false,
          "internalType": "uint256",
          "name": "tokenId",
          "type": "uint256"
        }
      ],
      "name": "ArtMinted",
      "type": "event"
    },
    {
      "anonymous": false,
      "inputs": [
        {
          "indexed": true,
          "internalType": "address",
          "name": "buyer",
          "type": "address"
        },
        {
          "indexed": false,
          "internalType": "uint256",
          "name": "tokenId",
          "type": "uint256"
        },
        {
          "indexed": false,
          "internalType": "uint256",
          "name": "price",
          "type": "uint256"
        }
      ],
      "name": "ArtSold",
      "type": "event"
    },
    {
      "anonymous": false,
      "inputs": [
        {
          "indexed": true,
          "internalType": "address",
          "name": "previousOwner",
          "type": "address"
        },
        {
          "indexed": true,
          "internalType": "address",
          "name": "newOwner",
          "type": "address"
        }
      ],
      "name": "OwnershipTransferred",
      "type": "event"
    },
    {
      "anonymous": false,
      "inputs": [
        {
          "indexed": true,
          "internalType": "address",
          "name": "from",
          "type": "address"
        },
        {
          "indexed": true,
          "internalType": "address",
          "name": "to",
          "type": "address"
        },
        {
          "indexed": true,
          "internalType": "uint256",
          "name": "tokenId",
          "type": "uint256"
        }
      ],
      "name": "Transfer",
      "type": "event"
    },
    {
      "inputs": [
        {
          "internalType": "address",
          "name": "to",
          "type": "address"
        },
        {
          "internalType": "uint256",
          "name": "tokenId",
          "type": "uint256"
        }
      ],
      "name": "approve",
      "outputs": [],
      "stateMutability": "nonpayable",
      "type": "function"
    },
    {
      "inputs": [
        {
          "internalType": "address",
          "name": "owner",
          "type": "address"
        }
      ],
      "name": "balanceOf",
      "outputs": [
        {
          "internalType": "uint256",
          "name": "",
          "type": "uint256"
        }
      ],
      "stateMutability": "view",
      "type": "function"
    },
    {
      "inputs": [
        {
          "internalType": "uint256",
          "name": "tokenId",
          "type": "uint256"
        }
      ],
      "name": "buy",
      "outputs": [],
      "stateMutability": "payable",
      "type": "function"
    },
    {
      "inputs": [
        {
          "internalType": "address",
          "name": "",
          "type": "address"
        }
      ],
      "name": "earnings",
      "outputs": [
        {
          "internalType": "uint256",
          "name": "",
          "type": "uint256"
        }
      ],
      "stateMutability": "view",
      "type": "function"
    },
    {
      "inputs": [
        {
          "internalType": "uint256",
          "name": "tokenId",
          "type": "uint256"
        }
      ],
      "name": "getApproved",
      "outputs": [
        {
          "internalType": "address",
          "name": "",
          "type": "address"
        }
      ],
      "stateMutability": "view",
      "type": "function"
    },
    {
      "inputs": [
        {
          "internalType": "address",
          "name": "owner",
          "type": "address"
        },
        {
          "internalType": "address",
          "name": "operator",
          "type": "address"
        }
      ],
      "name": "isApprovedForAll",
      "outputs": [
        {
          "internalType": "bool",
          "name": "",
          "type": "bool"
        }
      ],
      "stateMutability": "view",
      "type": "function"
    },
    {
      "inputs": [
        {
          "internalType": "uint256",
          "name": "tokenId",
          "type": "uint256"
        },
        {
          "internalType": "uint256",
          "name": "price",
          "type": "uint256"
        }
      ],
      "name": "listForSale",
      "outputs": [],
      "stateMutability": "nonpayable",
      "type": "function"
    },
    {
      "inputs": [],
      "name": "name",
      "outputs": [
        {
          "internalType": "string",
          "name": "",
          "type": "string"
        }
      ],
      "stateMutability": "view",
      "type": "function"
    },
    {
      "inputs": [],
      "name": "nextTokenId",
      "outputs": [
        {
          "internalType": "uint256",
          "name": "",
          "type": "uint256"
        }
      ],
      "stateMutability": "view",
      "type": "function"
    },
    {
      "inputs": [],
      "name": "owner",
      "outputs": [
        {
          "internalType": "address",
          "name": "",
          "type": "address"
        }
      ],
      "stateMutability": "view",
      "type": "function"
    },
    {
      "inputs": [
        {
          "internalType": "uint256",
          "name": "tokenId",
          "type": "uint256"
        }
      ],
      "name": "ownerOf",
      "outputs": [
        {
          "internalType": "address",
          "name": "",
          "type": "address"
        }
      ],
      "stateMutability": "view",
      "type": "function"
    },
    {
      "inputs": [
        {
          "internalType": "uint256",
          "name": "",
          "type": "uint256"
        }
      ],
      "name": "prices",
      "outputs": [
        {
          "internalType": "uint256",
          "name": "",
          "type": "uint256"
        }
      ],
      "stateMutability": "view",
      "type": "function"
    },
    {
      "inputs": [],
      "name": "renounceOwnership",
      "outputs": [],
      "stateMutability": "nonpayable",
      "type": "function"
    },
    {
      "inputs": [
        {
          "internalType": "address",
          "name": "from",
          "type": "address"
        },
        {
          "internalType": "address",
          "name": "to",
          "type": "address"
        },
        {
          "internalType": "uint256",
          "name": "tokenId",
          "type": "uint256"
        }
      ],
      "name": "safeTransferFrom",
      "outputs": [],
      "stateMutability": "nonpayable",
      "type": "function"
    },
    {
      "inputs": [
        {
          "internalType": "address",
          "name": "from",
          "type": "address"
        },
        {
          "internalType": "address",
          "name": "to",
          "type": "address"
        },
        {
          "internalType": "uint256",
          "name": "tokenId",
          "type": "uint256"
        },
        {
          "internalType": "bytes",
          "name": "data",
          "type": "bytes"
        }
      ],
      "name": "safeTransferFrom",
      "outputs": [],
      "stateMutability": "nonpayable",
      "type": "function"
    },
    {
      "inputs": [
        {
          "internalType": "address",
          "name": "operator",
          "type": "address"
        },
        {
          "internalType": "bool",
          "name": "approved",
          "type": "bool"
        }
      ],
      "name": "setApprovalForAll",
      "outputs": [],
      "stateMutability": "nonpayable",
      "type": "function"
    },
    {
      "inputs": [
        {
          "internalType": "bytes4",
          "name": "interfaceId",
          "type": "bytes4"
        }
      ],
      "name": "supportsInterface",
      "outputs": [
        {
          "internalType": "bool",
          "name": "",
          "type": "bool"
        }
      ],
      "stateMutability": "view",
      "type": "function"
    },
    {
      "inputs": [],
      "name": "symbol",
      "outputs": [
        {
          "internalType": "string",
          "name": "",
          "type": "string"
        }
      ],
      "stateMutability": "view",
      "type": "function"
    },
    {
      "inputs": [
        {
          "internalType": "uint256",
          "name": "tokenId",
          "type": "uint256"
        }
      ],
      "name": "tokenURI",
      "outputs": [
        {
          "internalType": "string",
          "name": "",
          "type": "string"
        }
      ],
      "stateMutability": "view",
      "type": "function"
    },
    {
      "inputs": [],
      "name": "totalSupply",
      "outputs": [
        {
          "internalType": "uint256",
          "name": "",
          "type": "uint256"
        }
      ],
      "stateMutability": "view",
      "type": "function"
    },
    {
      "inputs": [
        {
          "internalType": "address",
          "name": "from",
          "type": "address"
        },
        {
          "internalType": "address",
          "name": "to",
          "type": "address"
        },
        {
          "internalType": "uint256",
          "name": "tokenId",
          "type": "uint256"
        }
      ],
      "name": "transferFrom",
      "outputs": [],
      "stateMutability": "nonpayable",
      "type": "function"
    },
    {
      "inputs": [
        {
          "internalType": "address",
          "name": "newOwner",
          "type": "address"
        }
      ],
      "name": "transferOwnership",
      "outputs": [],
      "stateMutability": "nonpayable",
      "type": "function"
    },
    {
      "inputs": [],
      "name": "withdraw",
      "outputs": [],
      "stateMutability": "nonpayable",
      "type": "function"
    }
  ],
  "bytecode": "0x608060405234801561001057600080fd5b50336040518060400160405280600681526020017f4172744e465400000000000000000000000000000000000000000000000000008152506040518060400160405280600381526020017f4152540000000000000000000000000000000000000000000000000000000000815250816000908161008d919061043d565b50806001908161009d919061043d565b505050600073ffffffffffffffffffffffffffffffffffffffff168173ffffffffffffffffffffffffffffffffffffffff16036101125760006040517f1e4fbdf70000000000000000000000000000000000000000000000000000000081526004016101099190610550565b60405180910390fd5b6101218161012760201b60201c565b5061056b565b6000600660009054906101000a900473ffffffffffffffffffffffffffffffffffffffff16905081600660006101000a81548173ffffffffffffffffffffffffffffffffffffffff021916908373ffffffffffffffffffffffffffffffffffffffff1602179055508173ffffffffffffffffffffffffffffffffffffffff168173ffffffffffffffffffffffffffffffffffffffff167f8be0079c531659141344cd1fd0a4f28419497f9722a3daafe3b4186f6b6457e060405160405180910390a35050565b600081519050919050565b7f4e487b7100000000000000000000000000000000000000000000000000000000600052604160045260246000fd5b7f4e487b7100000000000000000000000000000000000000000000000000000000600052602260045260246000fd5b6000600282049050600182168061026e57607f821691505b60208210810361028157610280610227565b5b50919050565b60008190508160005260206000209050919050565b60006020601f8301049050919050565b600082821b905092915050565b6000600883026102e97fffffffffffffffffffffffffffffffffffffffffffffffffffffffffffffffff826102ac565b6102f386836102ac565b95508019841693508086168417925050509392505050565b6000819050919050565b6000819050919050565b600061033a6103356103308461030b565b610315565b61030b565b9050919050565b6000819050919050565b6103548361031f565b61036861036082610341565b8484546102b9565b825550505050565b600090565b61037d610370565b61038881848461034b565b505050565b5b818110156103ac576103a1600082610375565b60018101905061038e565b5050565b601f8211156103f1576103c281610287565b6103cb8461029c565b810160208510156103da578190505b6103ee6103e68561029c565b83018261038d565b50505b505050565b600082821c905092915050565b6000610414600019846008026103f6565b1980831691505092915050565b600061042d8383610403565b9150826002028217905092915050565b610446826101ed565b67ffffffffffffffff81111561045f5761045e6101f8565b5b6104698254610256565b6104748282856103b0565b600060209050601f8311600181146104a75760008415610495578287015190505b61049f8582610421565b865550610507565b601f1984166104b586610287565b60005b828110156104dd578489015182556001820191506020850194506020810190506104b8565b868310156104fa57848901516104f6601f891682610403565b8355505b6001600288020188555050505b505050505050565b600073ffffffffffffffffffffffffffffffffffffffff82169050919050565b600061053a8261050f565b9050919050565b61054a8161052f565b82525050565b60006020820190506105656000830184610541565b92915050565b612a818061057a6000396000f3fe60806040526004361061014b5760003560e01c8063715018a6116100b6578063bc31c1c11161006f578063bc31c1c11461047e578063c87b56dd146104bb578063d96a094a146104f8578063e80d7fec14610514578063e985e9c51461053d578063f2fde38b1461057a5761014b565b8063715018a61461039457806375794a3c146103ab5780638da5cb5b146103d657806395d89b4114610401578063a22cb4651461042c578063b88d4fde146104555761014b565b806323b872dd1161010857806323b872dd146102745780633ccfd60b1461029d57806342842e0e146102b4578063543fd313146102dd5780636352211e1461031a57806370a08231146103575761014b565b806301ffc9a71461015057806306fdde031461018d578063081812fc146101b8578063095ea7b3146101f55780631249c58b1461021e57806318160ddd14610249575b600080fd5b34801561015c57600080fd5b5061017760048036038101906101729190612007565b6105a3565b604051610184919061204f565b60405180910390f35b34801561019957600080fd5b506101a2610685565b6040516101af91906120fa565b60405180910390f35b3480156101c457600080fd5b506101df60048036038101906101da9190612152565b610717565b6040516101ec91906121c0565b60405180910390f35b34801561020157600080fd5b5061021c60048036038101906102179190612207565b610733565b005b34801561022a57600080fd5b50610233610749565b6040516102409190612256565b60405180910390f35b34801561025557600080fd5b5061025e6107c8565b60405161026b9190612256565b60405180910390f35b34801561028057600080fd5b5061029b60048036038101906102969190612271565b6107d2565b005b3480156102a957600080fd5b506102b26108d4565b005b3480156102c057600080fd5b506102db60048036038101906102d69190612271565b6109ea565b005b3480156102e957600080fd5b5061030460048036038101906102ff91906122c4565b610a0a565b6040516103119190612256565b60405180910390f35b34801561032657600080fd5b50610341600480360381019061033c9190612152565b610a22565b60405161034e91906121c0565b60405180910390f35b34801561036357600080fd5b5061037e600480360381019061037991906122c4565b610a34565b60405161038b9190612256565b60405180910390f35b3480156103a057600080fd5b506103a9610aee565b005b3480156103b757600080fd5b506103c0610b02565b6040516103cd9190612256565b60405180910390f35b3480156103e257600080fd5b506103eb610b08565b6040516103f891906121c0565b60405180910390f35b34801561040d57600080fd5b50610416610b32565b60405161042391906120fa565b60405180910390f35b34801561043857600080fd5b50610453600480360381019061044e919061231d565b610bc4565b005b34801561046157600080fd5b5061047c60048036038101906104779190612492565b610bda565b005b34801561048a57600080fd5b506104a560048036038101906104a09190612152565b610bff565b6040516104b29190612256565b60405180910390f35b3480156104c757600080fd5b506104e260048036038101906104dd9190612152565b610c17565b6040516104ef91906120fa565b60405180910390f35b610512600480360381019061050d9190612152565b610c80565b005b34801561052057600080fd5b5061053b60048036038101906105369190612515565b610dfa565b005b34801561054957600080fd5b50610564600480360381019061055f9190612555565b610e8c565b604051610571919061204f565b60405180910390f35b34801561058657600080fd5b506105a1600480360381019061059c91906122c4565b610f20565b005b60007f80ac58cd000000000000000000000000000000000000000000000000000000007bffffffffffffffffffffffffffffffffffffffffffffffffffffffff1916827bffffffffffffffffffffffffffffffffffffffffffffffffffffffff1916148061066e57507f5b5e139f000000000000000000000000000000000000000000000000000000007bffffffffffffffffffffffffffffffffffffffffffffffffffffffff1916827bffffffffffffffffffffffffffffffffffffffffffffffffffffffff1916145b8061067e575061067d82610fa6565b5b9050919050565b606060008054610694906125c4565b80601f01602080910402602001604051908101604052809291908181526020018280546106c0906125c4565b801561070d5780601f106106e25761010080835404028352916020019161070d565b820191906000526020600020905b8154815290600101906020018083116106f057829003601f168201915b5050505050905090565b600061072282611010565b5061072c82611098565b9050919050565b61074582826107406110d5565b6110dd565b5050565b600080600754905061075b33826110ef565b6007600081548092919061076e90612624565b91905055503373ffffffffffffffffffffffffffffffffffffffff167f0bed37416bd5a7ba333e1cd16fce94d0a3b4bab23a44959a3bf675523af5e21e826040516107b99190612256565b60405180910390a28091505090565b6000600754905090565b600073ffffffffffffffffffffffffffffffffffffffff168273ffffffffffffffffffffffffffffffffffffffff16036108445760006040517f64a0ae9200000000000000000000000000000000000000000000000000000000815260040161083b91906121c0565b60405180910390fd5b600061085883836108536110d5565b6111e8565b90508373ffffffffffffffffffffffffffffffffffffffff168173ffffffffffffffffffffffffffffffffffffffff16146108ce578382826040517f64283d7b0000000000000000000000000000000000000000000000000000000081526004016108c59392919061266c565b60405180910390fd5b50505050565b6000600960003373ffffffffffffffffffffffffffffffffffffffff1673ffffffffffffffffffffffffffffffffffffffff1681526020019081526020016000205490506000811161095b576040517f08c379a0000000000000000000000000000000000000000000000000000000008152600401610952906126ef565b60405180910390fd5b6000600960003373ffffffffffffffffffffffffffffffffffffffff1673ffffffffffffffffffffffffffffffffffffffff168152602001908152602001600020819055503373ffffffffffffffffffffffffffffffffffffffff166108fc829081150290604051600060405180830381858888f193505050501580156109e6573d6000803e3d6000fd5b5050565b610a0583838360405180602001604052806000815250610bda565b505050565b60096020528060005260406000206000915090505481565b6000610a2d82611010565b9050919050565b60008073ffffffffffffffffffffffffffffffffffffffff168273ffffffffffffffffffffffffffffffffffffffff1603610aa75760006040517f89c62b64000000000000000000000000000000000000000000000000000000008152600401610a9e91906121c0565b60405180910390fd5b600360008373ffffffffffffffffffffffffffffffffffffffff1673ffffffffffffffffffffffffffffffffffffffff168152602001908152602001600020549050919050565b610af6611402565b610b006000611489565b565b60075481565b6000600660009054906101000a900473ffffffffffffffffffffffffffffffffffffffff16905090565b606060018054610b41906125c4565b80601f0160208091040260200160405190810160405280929190818152602001828054610b6d906125c4565b8015610bba5780601f10610b8f57610100808354040283529160200191610bba565b820191906000526020600020905b815481529060010190602001808311610b9d57829003601f168201915b5050505050905090565b610bd6610bcf6110d5565b838361154f565b5050565b610be58484846107d2565b610bf9610bf06110d5565b858585856116be565b50505050565b60086020528060005260406000206000915090505481565b6060610c2282611010565b506000610c2d61186f565b90506000815111610c4d5760405180602001604052806000815250610c78565b80610c5784611886565b604051602001610c6892919061274b565b6040516020818303038152906040525b915050919050565b6000600860008381526020019081526020016000205490506000610ca383610a22565b905060008211610ce8576040517f08c379a0000000000000000000000000000000000000000000000000000000008152600401610cdf906127bb565b60405180910390fd5b81341015610d2b576040517f08c379a0000000000000000000000000000000000000000000000000000000008152600401610d2290612827565b60405180910390fd5b610d36813385611954565b34600960008373ffffffffffffffffffffffffffffffffffffffff1673ffffffffffffffffffffffffffffffffffffffff1681526020019081526020016000206000828254610d859190612847565b92505081905550600060086000858152602001908152602001600020819055503373ffffffffffffffffffffffffffffffffffffffff167f57af7e20c015bfaf4f55d77348526456e6433d3c9801597582de949d0b3519e98484604051610ded92919061287b565b60405180910390a2505050565b3373ffffffffffffffffffffffffffffffffffffffff16610e1a83610a22565b73ffffffffffffffffffffffffffffffffffffffff1614610e70576040517f08c379a0000000000000000000000000000000000000000000000000000000008152600401610e67906128f0565b60405180910390fd5b8060086000848152602001908152602001600020819055505050565b6000600560008473ffffffffffffffffffffffffffffffffffffffff1673ffffffffffffffffffffffffffffffffffffffff16815260200190815260200160002060008373ffffffffffffffffffffffffffffffffffffffff1673ffffffffffffffffffffffffffffffffffffffff16815260200190815260200160002060009054906101000a900460ff16905092915050565b610f28611402565b600073ffffffffffffffffffffffffffffffffffffffff168173ffffffffffffffffffffffffffffffffffffffff1603610f9a5760006040517f1e4fbdf7000000000000000000000000000000000000000000000000000000008152600401610f9191906121c0565b60405180910390fd5b610fa381611489565b50565b60007f01ffc9a7000000000000000000000000000000000000000000000000000000007bffffffffffffffffffffffffffffffffffffffffffffffffffffffff1916827bffffffffffffffffffffffffffffffffffffffffffffffffffffffff1916149050919050565b60008061101c83611ac1565b9050600073ffffffffffffffffffffffffffffffffffffffff168173ffffffffffffffffffffffffffffffffffffffff160361108f57826040517f7e2732890000000000000000000000000000000000000000000000000000000081526004016110869190612256565b60405180910390fd5b80915050919050565b60006004600083815260200190815260200160002060009054906101000a900473ffffffffffffffffffffffffffffffffffffffff169050919050565b600033905090565b6110ea8383836001611afe565b505050565b600073ffffffffffffffffffffffffffffffffffffffff168273ffffffffffffffffffffffffffffffffffffffff16036111615760006040517f64a0ae9200000000000000000000000000000000000000000000000000000000815260040161115891906121c0565b60405180910390fd5b600061116f838360006111e8565b9050600073ffffffffffffffffffffffffffffffffffffffff168173ffffffffffffffffffffffffffffffffffffffff16146111e35760006040517f73c6ac6e0000000000000000000000000000000000000000000000000000000081526004016111da91906121c0565b60405180910390fd5b505050565b6000806111f484611ac1565b9050600073ffffffffffffffffffffffffffffffffffffffff168373ffffffffffffffffffffffffffffffffffffffff161461123657611235818486611cc3565b5b600073ffffffffffffffffffffffffffffffffffffffff168173ffffffffffffffffffffffffffffffffffffffff16146112c757611278600085600080611afe565b6001600360008373ffffffffffffffffffffffffffffffffffffffff1673ffffffffffffffffffffffffffffffffffffffff168152602001908152602001600020600082825403925050819055505b600073ffffffffffffffffffffffffffffffffffffffff168573ffffffffffffffffffffffffffffffffffffffff161461134a576001600360008773ffffffffffffffffffffffffffffffffffffffff1673ffffffffffffffffffffffffffffffffffffffff168152602001908152602001600020600082825401925050819055505b846002600086815260200190815260200160002060006101000a81548173ffffffffffffffffffffffffffffffffffffffff021916908373ffffffffffffffffffffffffffffffffffffffff160217905550838573ffffffffffffffffffffffffffffffffffffffff168273ffffffffffffffffffffffffffffffffffffffff167fddf252ad1be2c89b69c2b068fc378daa952ba7f163c4a11628f55a4df523b3ef60405160405180910390a4809150509392505050565b61140a6110d5565b73ffffffffffffffffffffffffffffffffffffffff16611428610b08565b73ffffffffffffffffffffffffffffffffffffffff16146114875761144b6110d5565b6040517f118cdaa700000000000000000000000000000000000000000000000000000000815260040161147e91906121c0565b60405180910390fd5b565b6000600660009054906101000a900473ffffffffffffffffffffffffffffffffffffffff16905081600660006101000a81548173ffffffffffffffffffffffffffffffffffffffff021916908373ffffffffffffffffffffffffffffffffffffffff1602179055508173ffffffffffffffffffffffffffffffffffffffff168173ffffffffffffffffffffffffffffffffffffffff167f8be0079c531659141344cd1fd0a4f28419497f9722a3daafe3b4186f6b6457e060405160405180910390a35050565b600073ffffffffffffffffffffffffffffffffffffffff168273ffffffffffffffffffffffffffffffffffffffff16036115c057816040517f5b08ba180000000000000000000000000000000000000000000000000000000081526004016115b791906121c0565b60405180910390fd5b80600560008573ffffffffffffffffffffffffffffffffffffffff1673ffffffffffffffffffffffffffffffffffffffff16815260200190815260200160002060008473ffffffffffffffffffffffffffffffffffffffff1673ffffffffffffffffffffffffffffffffffffffff16815260200190815260200160002060006101000a81548160ff0219169083151502179055508173ffffffffffffffffffffffffffffffffffffffff168373ffffffffffffffffffffffffffffffffffffffff167f17307eab39ab6107e8899845ad3d59bd9653f200f220920489ca2b5937696c31836040516116b1919061204f565b60405180910390a3505050565b60008373ffffffffffffffffffffffffffffffffffffffff163b1115611868578273ffffffffffffffffffffffffffffffffffffffff1663150b7a02868685856040518563ffffffff1660e01b815260040161171d9493929190612965565b6020604051808303816000875af192505050801561175957506040513d601f19601f8201168201806040525081019061175691906129c6565b60015b6117dd573d8060008114611789576040519150601f19603f3d011682016040523d82523d6000602084013e61178e565b606091505b5060008151036117d557836040517f64a0ae920000000000000000000000000000000000000000000000000000000081526004016117cc91906121c0565b60405180910390fd5b805181602001fd5b63150b7a0260e01b7bffffffffffffffffffffffffffffffffffffffffffffffffffffffff1916817bffffffffffffffffffffffffffffffffffffffffffffffffffffffff19161461186657836040517f64a0ae9200000000000000000000000000000000000000000000000000000000815260040161185d91906121c0565b60405180910390fd5b505b5050505050565b606060405180602001604052806000815250905090565b60606000600161189584611d87565b01905060008167ffffffffffffffff8111156118b4576118b3612367565b5b6040519080825280601f01601f1916602001820160405280156118e65781602001600182028036833780820191505090505b509050600082602001820190505b600115611949578080600190039150507f3031323334353637383961626364656600000000000000000000000000000000600a86061a8153600a858161193d5761193c6129f3565b5b049450600085036118f4575b819350505050919050565b600073ffffffffffffffffffffffffffffffffffffffff168273ffffffffffffffffffffffffffffffffffffffff16036119c65760006040517f64a0ae920000000000000000000000000000000000000000000000000000000081526004016119bd91906121c0565b60405180910390fd5b60006119d4838360006111e8565b9050600073ffffffffffffffffffffffffffffffffffffffff168173ffffffffffffffffffffffffffffffffffffffff1603611a4757816040517f7e273289000000000000000000000000000000000000000000000000000000008152600401611a3e9190612256565b60405180910390fd5b8373ffffffffffffffffffffffffffffffffffffffff168173ffffffffffffffffffffffffffffffffffffffff1614611abb578382826040517f64283d7b000000000000000000000000000000000000000000000000000000008152600401611ab29392919061266c565b60405180910390fd5b50505050565b60006002600083815260200190815260200160002060009054906101000a900473ffffffffffffffffffffffffffffffffffffffff169050919050565b8080611b375750600073ffffffffffffffffffffffffffffffffffffffff168273ffffffffffffffffffffffffffffffffffffffff1614155b15611c6b576000611b4784611010565b9050600073ffffffffffffffffffffffffffffffffffffffff168373ffffffffffffffffffffffffffffffffffffffff1614158015611bb257508273ffffffffffffffffffffffffffffffffffffffff168173ffffffffffffffffffffffffffffffffffffffff1614155b8015611bc55750611bc38184610e8c565b155b15611c0757826040517fa9fbf51f000000000000000000000000000000000000000000000000000000008152600401611bfe91906121c0565b60405180910390fd5b8115611c6957838573ffffffffffffffffffffffffffffffffffffffff168273ffffffffffffffffffffffffffffffffffffffff167f8c5be1e5ebec7d5bd14f71427d1e84f3dd0314c0f7b2291e5b200ac8c7c3b92560405160405180910390a45b505b836004600085815260200190815260200160002060006101000a81548173ffffffffffffffffffffffffffffffffffffffff021916908373ffffffffffffffffffffffffffffffffffffffff16021790555050505050565b611cce838383611eda565b611d8257600073ffffffffffffffffffffffffffffffffffffffff168373ffffffffffffffffffffffffffffffffffffffff1603611d4357806040517f7e273289000000000000000000000000000000000000000000000000000000008152600401611d3a9190612256565b60405180910390fd5b81816040517f177e802f000000000000000000000000000000000000000000000000000000008152600401611d79929190612a22565b60405180910390fd5b505050565b600080600090507a184f03e93ff9f4daa797ed6e38ed64bf6a1f0100000000000000008310611de5577a184f03e93ff9f4daa797ed6e38ed64bf6a1f0100000000000000008381611ddb57611dda6129f3565b5b0492506040810190505b6d04ee2d6d415b85acef81000000008310611e22576d04ee2d6d415b85acef81000000008381611e1857611e176129f3565b5b0492506020810190505b662386f26fc100008310611e5157662386f26fc100008381611e4757611e466129f3565b5b0492506010810190505b6305f5e1008310611e7a576305f5e1008381611e7057611e6f6129f3565b5b0492506008810190505b6127108310611e9f576127108381611e9557611e946129f3565b5b0492506004810190505b60648310611ec25760648381611eb857611eb76129f3565b5b0492506002810190505b600a8310611ed1576001810190505b80915050919050565b60008073ffffffffffffffffffffffffffffffffffffffff168373ffffffffffffffffffffffffffffffffffffffff1614158015611f9257508273ffffffffffffffffffffffffffffffffffffffff168473ffffffffffffffffffffffffffffffffffffffff161480611f535750611f528484610e8c565b5b80611f9157508273ffffffffffffffffffffffffffffffffffffffff16611f7983611098565b73ffffffffffffffffffffffffffffffffffffffff16145b5b90509392505050565b6000604051905090565b600080fd5b600080fd5b60007fffffffff0000000000000000000000000000000000000000000000000000000082169050919050565b611fe481611faf565b8114611fef57600080fd5b50565b60008135905061200181611fdb565b92915050565b60006020828403121561201d5761201c611fa5565b5b600061202b84828501611ff2565b91505092915050565b60008115159050919050565b61204981612034565b82525050565b60006020820190506120646000830184612040565b92915050565b600081519050919050565b600082825260208201905092915050565b60005b838110156120a4578082015181840152602081019050612089565b60008484015250505050565b6000601f19601f8301169050919050565b60006120cc8261206a565b6120d68185612075565b93506120e6818560208601612086565b6120ef816120b0565b840191505092915050565b6000602082019050818103600083015261211481846120c1565b905092915050565b6000819050919050565b61212f8161211c565b811461213a57600080fd5b50565b60008135905061214c81612126565b92915050565b60006020828403121561216857612167611fa5565b5b60006121768482850161213d565b91505092915050565b600073ffffffffffffffffffffffffffffffffffffffff82169050919050565b60006121aa8261217f565b9050919050565b6121ba8161219f565b82525050565b60006020820190506121d560008301846121b1565b92915050565b6121e48161219f565b81146121ef57600080fd5b50565b600081359050612201816121db565b92915050565b6000806040838503121561221e5761221d611fa5565b5b600061222c858286016121f2565b925050602061223d8582860161213d565b9150509250929050565b6122508161211c565b82525050565b600060208201905061226b6000830184612247565b92915050565b60008060006060848603121561228a57612289611fa5565b5b6000612298868287016121f2565b93505060206122a9868287016121f2565b92505060406122ba8682870161213d565b9150509250925092565b6000602082840312156122da576122d9611fa5565b5b60006122e8848285016121f2565b91505092915050565b6122fa81612034565b811461230557600080fd5b50565b600081359050612317816122f1565b92915050565b6000806040838503121561233457612333611fa5565b5b6000612342858286016121f2565b925050602061235385828601612308565b9150509250929050565b600080fd5b600080fd5b7f4e487b7100000000000000000000000000000000000000000000000000000000600052604160045260246000fd5b61239f826120b0565b810181811067ffffffffffffffff821117156123be576123bd612367565b5b80604052505050565b60006123d1611f9b565b90506123dd8282612396565b919050565b600067ffffffffffffffff8211156123fd576123fc612367565b5b612406826120b0565b9050602081019050919050565b82818337600083830152505050565b6000612435612430846123e2565b6123c7565b90508281526020810184848401111561245157612450612362565b5b61245c848285612413565b509392505050565b600082601f8301126124795761247861235d565b5b8135612489848260208601612422565b91505092915050565b600080600080608085870312156124ac576124ab611fa5565b5b60006124ba878288016121f2565b94505060206124cb878288016121f2565b93505060406124dc8782880161213d565b925050606085013567ffffffffffffffff8111156124fd576124fc611faa565b5b61250987828801612464565b91505092959194509250565b6000806040838503121561252c5761252b611fa5565b5b600061253a8582860161213d565b925050602061254b8582860161213d565b9150509250929050565b6000806040838503121561256c5761256b611fa5565b5b600061257a858286016121f2565b925050602061258b858286016121f2565b9150509250929050565b7f4e487b7100000000000000000000000000000000000000000000000000000000600052602260045260246000fd5b600060028204905060018216806125dc57607f821691505b6020821081036125ef576125ee612595565b5b50919050565b7f4e487b7100000000000000000000000000000000000000000000000000000000600052601160045260246000fd5b600061262f8261211c565b91507fffffffffffffffffffffffffffffffffffffffffffffffffffffffffffffffff8203612661576126606125f5565b5b600182019050919050565b600060608201905061268160008301866121b1565b61268e6020830185612247565b61269b60408301846121b1565b949350505050565b7f4e6f206561726e696e6773000000000000000000000000000000000000000000600082015250565b60006126d9600b83612075565b91506126e4826126a3565b602082019050919050565b60006020820190508181036000830152612708816126cc565b9050919050565b600081905092915050565b60006127258261206a565b61272f818561270f565b935061273f818560208601612086565b80840191505092915050565b6000612757828561271a565b9150612763828461271a565b91508190509392505050565b7f4e6f7420666f722073616c650000000000000000000000000000000000000000600082015250565b60006127a5600c83612075565b91506127b08261276f565b602082019050919050565b600060208201905081810360008301526127d481612798565b9050919050565b7f4e6f7420656e6f75676820455448000000000000000000000000000000000000600082015250565b6000612811600e83612075565b915061281c826127db565b602082019050919050565b6000602082019050818103600083015261284081612804565b9050919050565b60006128528261211c565b915061285d8361211c565b9250828201905080821115612875576128746125f5565b5b92915050565b60006040820190506128906000830185612247565b61289d6020830184612247565b9392505050565b7f4e6f7420796f7572206172740000000000000000000000000000000000000000600082015250565b60006128da600c83612075565b91506128e5826128a4565b602082019050919050565b60006020820190508181036000830152612909816128cd565b9050919050565b600081519050919050565b600082825260208201905092915050565b600061293782612910565b612941818561291b565b9350612951818560208601612086565b61295a816120b0565b840191505092915050565b600060808201905061297a60008301876121b1565b61298760208301866121b1565b6129946040830185612247565b81810360608301526129a6818461292c565b905095945050505050565b6000815190506129c081611fdb565b92915050565b6000602082840312156129dc576129db611fa5565b5b60006129ea848285016129b1565b91505092915050565b7f4e487b7100000000000000000000000000000000000000000000000000000000600052601260045260246000fd5b6000604082019050612a3760008301856121b1565b612a446020830184612247565b939250505056fea2646970667358221220998f5a96f62131d50aa507ad83f6a8c6a10e5140082862cc22adbe014a48040264736f6c634300081c0033",
  "linkReferences": {},
  "deployedLinkReferences": {}
}